:08000000803102288731FD2F39
:100BAA0022000E11003222000E150800F700003054
:100BBA008531F82585317508F1007408F000873110
:100BCA002D27853177088631CE268531000085317B
:100BDA00D52585316830F600E430890BF22DF60B05
:100BEA00F22D00320800F0007008031DFD2DFE2DC5
:100BFA000A2E22008E1421000E138E130D108D1250
:100C0A000D128D110D118D101A2E7003031D0E2E4B
:100C1A000F2E1A2E21000E178E170D148D160D1673
:100C2A008D150D158D1422008E100800863185262B
:100C3A00863120009019222E232E1E2E0030863156
:100C4A004C2686318030F800F901FA017A08F5005D
:100C5A007908F40078088531DB2586310310F80C11
:100C6A007808031D392E3A2E3C2E8030F8000130C8
:100C7A00F9070030FA3D00307A02FF300319790291
:100C8A00031C482E492E2B2E010080310228F20027
:100C9A007208031D512E522E552E20008E12842EBC
:100CAA007203031D592E5A2E5D2E20008E16842E95
:100CBA0002307206031D622E632E842E20008E16C9
:100CCA000B30F1002630F0005E30890B6A2EF00BF3
:100CDA006A2EF10B6A2E20008E120B30F10026309C
:100CEA00F0005E30890B772EF00B772EF10B772E02
:100CFA0020009019812E822E632E0100632E080097
:100D0A00FC3021009905190887397038990099171C
:100D1A0023008C018D012400901121000D138D13E5
:100D2A000E1122000E1521008E1022008E142100B1
:100D3A000C108C100C118C110C128C128C130C13BD
:100D4A000E128E110E100030F000F10087312D279F
:100D5A00863121000E138E130D108D120D128D1176
:100D6A000D118D1000308631CE26863121008E126B
:100D7A00013086314C2686312930F5009630F40050
:100D8A007F30890BC62EF40BC62EF50BC62E00003B
:100D9A000800F10071080139F000F00EF00DF00DB5
:100DAA0022000E087006BF3970068E007136F100F7
:100DBA0071080139F000F00CF00C0E0870067F394A
:100DCA0070068E007136F10001307105F0000D08D1
:100DDA007006FE3970068D007136F100710801390E
:100DEA00F000F00EF00D0D087006DF3970068D0068
:100DFA007136F10071080139F000F00E0D08700625
:100E0A00EF3970068D007136F10071080139F00072
:100E1A00F00DF00DF00D0D087006F73970068D0013
:100E2A007136F10071080139F000F00DF00D0D086E
:100E3A007006FB3970068D007136F10071080139B0
:100E4A00F000F00D0D087006FD3970068D000800DF
:100E5A0001307005F20022000C087206FE39720693
:100E6A008C007108F3007008F200F336F20C720875
:100E7A00F0007308F10070080139F200F20D0C0855
:100E8A007206FD3972068C007108F3007008F200D0
:100E9A00F336F20C7208F0007308F1007008013999
:100EAA00F200F20DF20D0C087206FB3972068C0084
:100EBA007108F3007008F200F336F20C7208F000C1
:100ECA007308F10070080139F200F20DF20DF20D0B
:100EDA000C087206F73972068C007108F300700864
:100EEA00F200F336F20C7208F0007308F100700891
:100EFA000139F200F20E0C087206EF3972068C0004
:100F0A007108F3007008F200F336F20C7208F00070
:100F1A007308F10070080139F200F20EF20D0C08A4
:100F2A007206DF3972068C007108F3007008F2004D
:100F3A00F336F20C7208F0007308F10070080139F8
:100F4A00F200F20CF20C0C0872067F3972068C0061
:100F5A007108F3007008F200F336F20C7208F00020
:100F6A007308F10070080139F200F20EF20DF20D69
:100F7A000C087206BF3972068C007108F3007008FB
:100F8A00F200F336F20C7208F0007308F1007008F0
:100F9A000139F200F20E0E087206EF3972068E005F
:100FAA007108F3007008F200F336F20C7208F000D0
:100FBA007308F10070080139F200F20DF20DF20D1A
:100FCA000E087206F73972068E007108F30070086F
:100FDA00F200F336F20C7208F0007308F1000130E7
:100FEA007005F2000E087206FE3972068E000800BD
:060FFA00200086311B2ED1
:020000040001F9
:08000000FF3FFF3FFF3FFF3F00
:04000E00A409FF1D25
:00000001FF
